:020000040000FA
:100000000C9468010C947A010C947A010C94A82F3A
:100010000C946E2C0C947A010C947A010C947A0155
:100020000C947A010C947A010C947A010C94BE2CF5
:100030000C947A010C947A010C947A010C947A0154
:100040000C94A82C0C947A010C94DE2E0C947E2F28
:100050000C947A010C947A010C947A010C947A0134
:100060000C947A010C947A01084AD73B3BCE016E7E
:1000700084BCBFFDC12F3D6C74319ABD56833DDAFF
:100080003D00C77F11BED9E4BB4C3E916BAAAABE0E
:10009000000000803F05A84CCDB2D44EB93836A937
:1000A000020C50B9918688083CA6AAAA2ABE000074
:1000B00000803F000D0A4772626C20312E316820AB
:1000C0005B27242720666F722068656C705D0D0ABF
:1000D00000244E005B4F50543A005B5645523A3173
:1000E0002E31682E32303139303833303A005B549B
:1000F0004C4F3A005B4739323A0033300032380017
:100100005B4700204700204D002053002046002080
:10011000540033382E005B47433A47005B484C504D
:100120003A242420242320244720244920244E201C
:1001300024783D76616C20244E783D6C696E652094
:10014000244A3D6C696E652024534C502024432082
:100150002458202448207E2021203F206374726C84
:100160002D785D0D0A00414C41524D3A007C413AD8
:10017000007C4F763A007C57434F3A007C506E3AF1
:10018000007C46533A007C42663A007C57506F73BD
:100190003A007C4D506F733A00536C6565700044B3
:1001A0006F6F723A00436865636B00416C61726DFA
:1001B00000486F6D65004A6F6700486F6C643A00D5
:1001C00052756E0049646C65000D0A005B50524226
:1001D0003A006572726F723A0000007A4300007A4A
:1001E0004300007A430000FA430000FA430000FA9B
:1001F0004300A00C4700A00C4700A00C470000489B
:10020000C3000048C3000048C30A000019010AD710
:10021000233C6F12033B00007A4400000000000002
:100220000000C8410000FA43FA000000803F6F6BF5
:100230000D0A00536C656570696E670052657374D2
:100240006F72696E67207370696E646C65005265C9
:1002500073746F72696E672064656661756C747320
:100260000050676D20456E6400436865636B204CE9
:10027000696D69747300436865636B20446F6F72C6
:100280000044697361626C656400456E61626C650F
:10029000640043617574696F6E3A20556E6C6F63CC
:1002A0006B656400272448277C2724582720746F17
:1002B00020756E6C6F636B00526573657420746F8C
:1002C00020636F6E74696E7565005B4D53473A002D
:1002D00011241FBECFEFD8E0DEBFCDBF27E0A0E0E6
:1002E000B1E001C01D92A136B207E1F70E94D72FFD
:1002F0000C94193A0C9400008F929F92AF92BF9287
:10030000CF92DF92EF92FF920F931F93CF93DF93E1
:100310007C016B01DC01EC91F0E0EF5EF84F808135
:10032000EF018D3229F52296818101E0912CF0E0D8
:1003300010E020E030E0A9015E01E0EDE80FEA30D6
:1003400018F5FF5FF930E0F491101150A5E0B0E02E
:100350000E94F2399B01AC01220F331F441F551F2D
:100360002E0F311D411D511D2196D5018C91E4CFD9
:100370008B3219F0219600E0D9CF22968181FBCFF4
:100380009110F2CF1F5FF0CFEE3F29F4911003C020
:1003900099249394E9CFFF23F9F0CA01B9010E948F
:1003A000F1364B015C0120E030E0A9010E943F36AC
:1003B00081112BC0002309F445C0B7FAB094B7F8F7
:1003C000B094F60180829182A282B382C151D7405B
:1003D000C150F701C083F1E08F2FDF91CF911F91C2
:1003E0000F91FF90EF90DF90CF90BF90AF909F90D4
:1003F0008F9008952AE037ED43E25CE3C501B40134
:100400000E94A1384B015C011E5F1F3F9CF31F3F00
:1004100059F42DEC3CEC4CEC5DE3C501B4010E94B9
:10042000A1384B015C01C6CF112321F220E030E05E
:1004300040E251E4C501B4010E94A1384B015C01C6
:100440001150F2CFD6018D929D92AD92BC9213972E
:10045000BDCF2FB7F89490911606892B809316067E
:100460002FBF08952FB7F89490911506892B80938C
:1004700015062FBF08959FB7F894809314069FBF69
:1004800008959FB7F8942091130680958223809356
:1004900013069FBF08952FB7F89490911306892BE8
:1004A000809313062FBF0895AF92BF92CF92DF9231
:1004B000EF92FF920F931F93CF93DF93EC0106E629
:1004C00016E05C018CE0A80EB11CC990D990E990AF
:1004D000F99020E030E0A901C701B6010E9461381F
:1004E0001816DCF0F80121913191419151918F0161
:1004F000C701B6010E943F3687FD0FC0CA15DB0554
:1005000021F780E0DF91CF911F910F91FF90EF9045
:10051000DF90CF90BF90AF90089581E0F3CF8F929E
:100520009F92AF92BF92CF92DF92EF92FF920F9382
:100530001F93CF93DF93EB0122E4E22E26E0F22E0D
:100540008C016B018CE0C80ED11C69917991899165
:100550009991F70181909190A190B1907F010E94B3
:10056000F336A50194010E944936F8016193719315
:10057000819391938F01CC15DD0539F7DF91CF91F0
:100580001F910F91FF90EF90DF90CF90BF90AF90B1
:100590009F908F90089596B19095892F877039F02C
:1005A00082E091FF80E090FD816092FD846008957B
:1005B000CF93DF93C0911106D09112062097C9F016
:1005C0008091E20581608093E2056091F805709169
:1005D000F9058091FA059091FB059B01AC010E9401
:1005E000A1386A8B7B8B8C8B9D8B1092120610929C
:1005F0001106DF91CF91089590917306492F809154
:100600007406282F90FF11C094E080FF10C080E294
:1006100041FD986021FD806442FD906122FD80686B
:1006200090930F0280931002089590E0EECF80E047
:10063000EFCF8091870682FF13C0289A80910F0226
:1006400080932002809172068250990B880F8195C9
:1006500080931F0280916F00826080936F000895E5
:100660002898ECCFE0911D0191E09E0F993609F496
:1006700090E020918701291761F0F0E0E25EFE4FE3
:10068000808390931D018091C10080628093C1009E
:1006900004C02091130624FFECCF0895CF93DF937D
:1006A000C1E1D7E08991811103C0DF91CF91089515
:1006B0000E943203F7CF109217069091870697FD9C
:1006C00003C090E290931706882331F080911706BB
:1006D00090E289278093170608958F929F92AF9298
:1006E000BF92CF92DF92EF92FF920F931F93CF931F
:1006F000DF93CDB7DEB72D970FB6F894DEBF0FBEF0
:10070000CDBF6B017C01042F20E030E0A9010E94E5
:100710003F3687FF07C08DE20E943203F7FAF0945C
:10072000F7F8F094102F123008F054C000FF0AC000
:1007300020E030E040E251E4C701B6010E94A13858
:100740006B017C0120E030E040E05FE3C701B601CF
:100750000E944A350E94BB3610E03AE0832E912C6D
:10076000A12CB12CE12FF0E06115710581059105F7
:10077000E9F581E090E08C0F9D1FE80FF91F80E301
:10078000101708F445C0101309C0E1E0F0E0EC0FC9
:10079000FD1FE10FF11D80E380831F5FEE24E394D2
:1007A000F12CEC0EFD1EE10EF11C111134C02D9642
:1007B0000FB6F894DEBF0FBECDBFDF91CF911F9172
:1007C0000F91FF90EF90DF90CF90BF90AF909F90F0
:1007D0008F90089520E030E048EC52E4C701B60164
:1007E0000E94A1386B017C0112509DCFEE24E3944E
:1007F000F12CEC0EFD1EEE0EFF1EA50194010E94D1
:10080000CA39605DF7016083B901CA011F5FAACFD1
:100810001F5F8193B5CF101303C08EE20E94320395
:10082000F70182917F010E9432031150BECF2091C7
:10083000870640E020FF07C02BE832E441E25DE399
:100840000E94A13841E00C946D032091870643E09B
:1008500020FF07C02BE832E441E25DE30E94A138AB
:1008600044E00C946D030F931F93CF938C01C0E071
:10087000F80161917191819191918F010E942504FC
:10088000C23019F08CE20E943203CF5FC33081F78F
:10089000CF911F910F910895CF93DF93843658F035
:1008A0006AE00E94AA39C0E3C90F6AE00E94AA392F
:1008B000D0E3D90F04C0C0E0D0E08A30B0F7805D4B
:1008C0000E943203DD2319F08D2F0E943203CC23C6
:1008D00029F08C2FDF91CF910C943203DF91CF91CF
:1008E0000895CF93DF93EC01FE018491219681114D
:1008F00003C0DF91CF9108950E943203F5CF89ECB8
:1009000091E00C947104CF93C82F82ED91E00E9486
:1009100071048C2F0E944C04CF910C947F048111A0
:1009200004C08EE292E00C9471040C948304CF9284
:10093000DF92EF92FF92CF93DF93D82F6A017B0172
:10094000C22F84E20E9432038D2F0E944C048DE35B
:100950000E9432034C2FC701B6010E946D03DF9144
:10096000CF91FF90EF90DF90CF900C947F04CF93C6
:10097000DF93D82FC62F84E20E9432038D2F0E946E
:100980004C048DE30E9432038C2F0E944C04DF91B3
:10099000CF910C947F04EF92FF920F931F93CF930C
:1009A000DF936091720670E080E00E94B70460916E
:1009B000750670E081E00E94B7046091730670E0F4
:1009C00082E00E94B7046091740670E083E00E94A8
:1009D000B7046091870662FB662760F970E084E0E7
:1009E0000E94B7046091870666FB662760F970E095
:1009F00085E00E94B70480918706082E000C990BB1
:100A0000692F661F6627661F70E086E00E94B704A4
:100A10006091760670E08AE00E94B7044091770604
:100A2000509178066091790670917A0623E08BE008
:100A30000E94970440917B0650917C0660917D0650
:100A400070917E0623E08CE00E94970460918706F7
:100A5000617070E08DE00E94B7046091870665FBCD
:100A6000662760F970E084E10E94B7046091870610
:100A700063FB662760F970E085E10E94B70460912E
:100A800087066295617070E086E10E94B70460910C
:100A9000880670E087E10E94B70440918906509172
:100AA0008A0660918B0670918C0623E088E10E9493
:100AB000970440918D0650918E0660918F0670913B
:100AC000900623E089E10E9497046091910670915D
:100AD00092068AE10E94B7044091930650919406D1
:100AE000609195067091960623E08BE10E94970431
:100AF00040917F0650918006609181067091820638
:100B000020E08EE10E949704409183065091840674
:100B1000609185067091860620E08FE10E9497041F
:100B2000609187066695617070E080E20E94B7046C
:100B300084E6F82E10E0C2E4D6E000E0E02EEF0CF0
:100B4000123011F1133069F11130C9F04881598127
:100B50006A817B8123E08E2D0E9497040F5F24968B
:100B6000033061F78AE0F80E1F5F8CE8F812E3CFDC
:100B7000DF91CF911F910F91FF90EF9008954C85D9
:100B80005D856E857F85E6CF20E030E041E655E467
:100B9000688D798D8A8D9B8D0E944936AB01BC0191
:100BA000D9CF4CA15DA16EA17FA17058D3CF8DE5A7
:100BB0000E9432030C947F04CF93DF93CDB7DEB74E
:100BC0002C970FB6F894DEBF0FBECDBF8CEC91E032
:100BD0000E94710464E276E0CE0101960E948F02C9
:100BE000CE0101960E9433048AE30E943203809171
:100BF00036060E944C040E94D7052C960FB6F89436
:100C0000DEBF0FBECDBFDF91CF910895E1E0F1E0EF
:100C1000A8E1B6E04D915D916D917C911397408371
:100C200051836283738314964D915D916D917C9194
:100C30001797448355836683778318968D919D918A
:100C40000D90BC91A02D80879187A287B3870895CE
:100C5000BF92CF92DF92EF92FF920F931F93CF93A9
:100C6000DF937C01FC0102A513A5D4A5C5A581894C
:100C700080FF33C06091390670E090E080E00E9410
:100C8000F3362AE037ED43E25CE30E94A1389B0192
:100C9000AC01B8018D2F9C2F0E94A1388B01D82F59
:100CA000C92F20E030E040E85FE3B8018D2F9C2F92
:100CB0000E946138181624F000E010E0D0E8CFE37D
:100CC000B8018D2F9C2FDF91CF911F910F91FF9035
:100CD000EF90DF90CF90BF90089582FD17C0609194
:100CE000380670E090E080E00E94F3362AE037EDAD
:100CF00043E25CE30E94A1389B01AC01B8018D2F57
:100D00009C2F0E94A1388B01D82FC92FF701B6A0C4
:100D1000C7A0D0A4F1A498014D2F5C2F6B2D7C2D82
:100D20008D2D9F2D0E943F3687FFBBCF0B2D1C2D95
:100D3000DD2DCF2DB6CF80913602909157059817B3
:100D400039F022E3829FC0011124895C9D4F0895F0
:100D500090E080E008950E949B06892B19F082E0C4
:100D60000C944B0208952F923F924F925F926F9294
:100D70007F928F929F92AF92BF92CF92DF92EF922B
:100D8000FF920F931F93CF93DF9300D000D0CDB786
:100D9000DEB700915705002309F486C00983398125
:100DA0003150398310913502131709F466C0C32EF0
:100DB000D12CE2E33E9FC00111249C01295C3D4FF0
:100DC0007901F90176888788908CA18C628D738D6A
:100DD000848D958D9B01AC010E944A35F701268DCB
:100DE000378D40A151A10E94A138B62EE72EF82ED2
:100DF0009B83262F372F482F592F672D782D892D2C
:100E00009A2D0E943F3687FF03C0B72C7401AB8236
:100E100082E38C9DF0018D9DF00D1124E95CFD4F66
:100E20008B2D9E2DAF2DBB81828B938BA48BB58B8D
:100E3000F9818F2FF11101C080E1FF24FA94F80E9F
:100E4000309036021F1133C0131102C00E94D80225
:100E5000E2E31E9FC0011124895C9D4F9A83898320
:100E600033243394310EF0E13F1201C0312C82E380
:100E7000282E031185C0109335020F900F900F900C
:100E80000F90DF91CF911F910F91FF90EF90DF9026
:100E9000CF90BF90AF909F908F907F906F905F901A
:100EA0004F903F902F90089520E1298378CF29819A
:100EB00082E3289F90011124295C3D4F3C832B83C2
:100EC00022E3E22E8F2C912CFE9CC0011124FC0108
:100ED000E95CFD4FFA83E983F11002C090E1F92E3D
:100EE000FA94F31002C00E94D802E89CC001E99C69
:100EF000900D11249C01295C3D4F6901F901468840
:100F00005788608C718CA3019201628973898489EE
:100F100095890E943F36882339F1F601628D738DE1
:100F2000848D958D9B01AC010E944A35F601268D7A
:100F3000378D40A151A10E94A138EB81FC8122890B
:100F40003389448955890E944A354B015C01AC01C3
:100F50009B01C301B2010E946138F60118165CF4CE
:100F6000828A938AA48AB58A29813A813C832B8319
:100F70001F11A8CF6DCF428A538A648A758AF4CF35
:100F8000C32CD12C329CC00111249C01295C3D4F03
:100F90007901E981FA814288538864887588F9016A
:100FA00082889388A488B588A5019401C301B20101
:100FB0000E943F3687FF26C0E981FA81628D738DDA
:100FC000848D958D9B01AC010E944A35E981FA819F
:100FD000268D378D40A151A10E94A138A301920115
:100FE0000E944A352B013C01AC019B01C501B401B3
:100FF0000E946138181634F4F701428A538A648AD1
:10100000758A132D2C9CF0012D9CF00D1124E95CA8
:10101000FD4F26893789408D518D62897389848976
:1010200095890E943F36811101C0132D3394F0E160
:101030003F1201C0312CFA82E9821BCF6F927F925E
:101040008F929F92AF92BF92CF92DF92EF92FF92D8
:101050000F931F93CF93DF93EB018C015B018CE027
:10106000A80EB11C89E9682E96E7792E26E9822E12
:101070003EE7932EC990D990E990F99020E030E0B6
:10108000A901C701B6010E943F368823B9F0A70124
:101090009601F80160817181828193810E944936B5
:1010A0006B017C01E894F7F89301A401C701B60134
:1010B0000E946138181614F0360147010C5F1F4F6B
:1010C000CA15DB05B9F6B301C401DF91CF911F91B9
:1010D0000F91FF90EF90DF90CF90BF90AF909F90D7
:1010E0008F907F906F90089593B18091870686FFCF
:1010F0000BC0967159F091FB882780F992FD8260B0
:10110000907129F0846008959095F3CF80E0089560
:10111000EBE6F0E08081897E8083E8E6F0E0808184
:101120008E7F8083089584B1897E84B985B186617C
:1011300085B98091870683FF0BC080916B00866123
:1011400080936B00809168008160809368000895AF
:101150000C94880868E176E08FEA96E00C948F02A0
:10116000F894F999FECF92BD81BD81E08FBB20B587
:10117000862F8227082E000C990B50E0862395239A
:10118000892B49F084E16F3F11F060BD84E08FBB93
:10119000F99A789408952617E1F360BD84E2F7CFB9
:1011A0009F92AF92BF92CF92DF92EF92FF920F93F6
:1011B0001F93CF93DF935C018A017B01E40EF51E40
:1011C000EB01912C6C01C61AD70ACE018C0D9D1D26
:1011D00021E0911007C0292D990C330B232F221FDA
:1011E0002227221F6991962E920E0E94B008CE15DA
:1011F000DF0559F7692DC501800F911FDF91CF9150
:101200001F910F91FF90EF90DF90CF90BF90AF9024
:101210009F900C94B0086AE090E080E00E94B008D3
:1012200045E550E062E476E081E090E00C94D0087F
:10123000F999FECF92BD81BD81E08FBB80B5089545
:101240009F92AF92BF92CF92DF92EF92FF920F9355
:101250001F93CF93DF935B018A017C01E40EF51E9F
:10126000EC01912C6B01C81AD90AC6018C0F9D1F85
:101270000E94180921E0911007C0292D990C330B09
:10128000232F221F2227221F982E920E8993CE15DC
:10129000DF0559F7C501800F911F0E94180921E051
:1012A00030E0891511F030E020E0C901DF91CF91E5
:1012B0001F910F91FF90EF90DF90CF90BF90AF9074
:1012C0009F90089590913206911105C086FF04C049
:1012D000439A10923C0608954398FBCFE1E0F1E079
:1012E0008CE1DF011D928A95E9F710923602109287
:1012F000570581E0809300011092350208954F92C6
:101300005F926F927F92AF92BF92CF92DF92EF92F5
:10131000FF920F931F93CF93DF93EC015C012CE0BE
:10132000A20EB11C8C01C12CD12C7601F801419088
:101330005190619071908F0120E030E0A901C301CC
:10134000B2010E943F36882371F0A3019201C301CC
:10135000B2010E94A1389B01AC01C701B6010E94F5
:101360004A356B017C010A151B0501F7C701B6015F
:101370000E9440396B017C01AC019B0160E070E090
:1013800080E89FE30E9449362B013C0169917991E5
:10139000899199915E01F4E0AF1AB108A30192011D
:1013A0000E94A138F5016083718382839383C01703
:1013B000D10761F7C701B601DF91CF911F910F915E
:1013C000FF90EF90DF90CF90BF90AF907F906F90A5
:1013D0005F904F9008954F925F926F927F928F929D
:1013E0009F92AF92BF92CF92DF92EF92FF926B01EA
:1013F0007C018090830690908406A0908506B09032
:10140000860640907F06509080066090810670901E
:101410008206A3019201C501B4010E94613887FFD1
:101420001BC060913A0670E090E080E00E94F336C5
:101430002AE037ED43E25CE30E94A138A701960160
:101440000E94A1386B017C01AC019B01C301B20178
:101450000E943F361816B4F040923E0650923F0666
:1014600060924006709241068FEFFF90EF90DF9000
:10147000CF90BF90AF909F908F907F906F905F9034
:101480004F900895A7019601C501B4010E946138EB
:1014900087FD1CC020E030E0A901C701B6010E9411
:1014A0003F36811109C010923E0610923F061092FD
:1014B000400610924106D9CF80923E0690923F0698
:1014C000A0924006B092410681E0CFCFC0923E0686
:1014D000D0923F06E0924006F0924106A5019401A9
:1014E000C701B6010E94493520910B0230910C02D0
:1014F00040910D0250910E020E94A1380E942E3799
:1015000020E030E040E85FE30E944A350E94C236A6
:10151000862FABCF2F923F924F925F926F927F9226
:101520008F929F92AF92BF92CF92DF92EF92FF92F3
:101530000F931F93CF93DF93CDB7DEB7EB970FB623
:10154000F894DEBF0FBECDBF8091350680FD53C23B
:101550009091580580915905981709F44CC28091D3
:10156000110690911206892B09F07EC01091350664
:1015700012FF5AC28091570522E3829FC0011124B5
:10158000895C9D4F9093120680931106409111063D
:10159000509112065A874987452B09F42CC20091B5
:1015A000E20500FF44C21092E2051092F405109289
:1015B000F5051092F6051092F705A985BA855A9699
:1015C0002D913D914D915C915D9729833A834B8399
:1015D0005C8360E070E080E09FE30E9449366D83A9
:1015E0007E838F839887E985FA85468C578C60A027
:1015F00071A082889388A488B58811FF05C3F2E0A2
:10160000F093F305A50194010E94A1389B01AC0160
:10161000C301B2010E9449356B017C0120E030E03A
:10162000A9010E943F3687FFDEC229813A814B81A2
:101630005C81CA01B9010E944A35A30192010E944E
:10164000A1389B01AC01C501B4010E9449350E943B
:1016500040396093000670930106809302069093D0
:10166000030618601093350680918405A82FB0E01A
:10167000BA8BA98B27E02A9FF0012B9FF00D112434
:10168000E65AFA4F8091E10584834091110650910A
:1016900012065A874987DA015E96BC91BDA3FA010A
:1016A000F78DFEA3DA019096BC91BFA3FA01F1A1D8
:1016B000F8A72091EF053091F0054091F105509188
:1016C000F2056DA17EA18B2F9F2F0E94493569AB3A
:1016D0007AAB8BAB9CAB20E030E0A9010E943F3697
:1016E00087FF04C019AA1AAA1BAA1CAA2091FC05EC
:1016F0002D8B3091FD053E8B4091FE054F8B509117
:10170000FF05588F809104068D8F909105069E8F5E
:10171000A0910606AF8FB0910706B8A3E091080626
:10172000E9A7F0910906FAA720910A062BA73091A4
:101730000B063CA77090F8056090F9054091FA05FA
:101740004BAF5091FB055AAF8091F3058D87909177
:10175000F4059DA7A091F505AEA7B091F605BFA72A
:10176000E091F705E8ABF0910006FEAB2091010691
:101770002FAB3091020638AF4091030649AF29A53F
:101780003AA54BA55CA56D8D7E8D8F8D98A10E948D
:101790003F368111C8C352E05DAB9DA1998FAEA1C8
:1017A000AA8FBFA1BB8FE8A5EC8F8EE3C82E83EC78
:1017B000D82E8EE2E82E89E3F82E212C312C21013F
:1017C000A701960129A33AA34BA35CA35D855130E1
:1017D00009F44AC4A985BA85513008F4D6C35330F8
:1017E00009F078C45A962D913D914D915C915D9789
:1017F000C701B6010E94A1384B015C012D893E89C9
:101800004F89588D672D762D8BAD9AAD0E94493545
:101810009B01AC01C501B4010E94613887FD8DC3F5
:101820002D8D3E8D4F8D58A16DA17EA18FA198A5C4
:101830000E9449359B01AC010E944A356B017C0135
:101840002D893E894F89588D672D762D8BAD9AADA8
:101850000E944A359B01AC01C701B6010E9449367E
:101860006B017C017D886E88BF89BBAFE88DEAAFD4
:101870000D8D1E8DFF8DF98328A12D8331E03D87CD
:10188000A7019601C201B1010E944A351B012C013A
:1018900029A13AA14BA15CA10E943F3687FF87C4D2
:1018A000A201910169A17AA18BA19CA10E94493555
:1018B0006B017C01980149815D816DA57EA58FA595
:1018C00098A90E943F3687FD31C3872D962DABAD79
:1018D000BAAD8093F8059093F905A093FA05B093FB
:1018E000FB053D853093F305E0918505F091860574
:1018F0008189811104C09091350693FF31C0A9857B
:10190000BA8551969C915197907309F47CC49E9628
:10191000CD90DD90ED90FC90D1978823B1F020918F
:101920000C0630910D0640910E0650910F06672D62
:10193000762D8BAD9AAD0E94A1389B01AC01C701F9
:10194000B6010E94A1386B017C01C701B6010E945B
:10195000EB098093100680913506877F80933506CA
:1019600027E0E989FA892E9FC0012F9F900D11244D
:10197000AC01465A5A4F3A0180911006DA01169688
:101980008C932091EB053091EC054091ED05509141
:10199000EE05B80189819D810E94A13869877A8707
:1019A0008B879C870E9428366B017C016091E7053C
:1019B0007091E8058091E9059091EA050E9428362A
:1019C0004B015C01A70196010E9449350E94C23675
:1019D0006D877E878F87988B2D853E85F3013183B8
:1019E0002083232B09F01AC48091350681FF16C489
:1019F000816080933506EB960FB6F894DEBF0FBE7C
:101A0000CDBFDF91CF911F910F91FF90EF90DF90AD
:101A1000CF90BF90AF909F908F907F906F905F908E
:101A20004F903F902F9008950E949B06ABCD8091E0
:101A3000E1058F5F853009F480E08093E105282F70
:101A400030E052E1859FC0011124DC01A957BA4F53
:101A50007D01B0938605A0938505E985FA85808987
:101A600050968C9390E080E04191519161917191F9
:101A7000D701A80FB91F689412F8440F551F661FAD
:101A8000771F1694D1F74D935D936D937C931397C5
:101A900004968C30910541F7A985BA851C966D9105
:101AA0007D918D919C911F97B2E1B29FA001B39F50
:101AB000500D1124FA01E957FA4F4B015C0123E064
:101AC000880C991CAA1CBB1C2A95D1F78486958684
:101AD000A686B7860E94F1366093E7057093E80505
:101AE0008093E9059093EA05E985FA85268D378D7F
:101AF00040A151A10E9449369B01AC012093EB0506
:101B00003093EC054093ED055093EE0560E070E0F6
:101B100080EA9FE30E9449366093EF057093F005D9
:101B20008093F1059093F2051092E3051092E4057D
:101B30001092E5051092E60511FD02C003FF42C0B8
:101B40006091000670910106809102069091030653
:101B50006093F8057093F9058093FA059093FB055F
:101B60009B01AC010E94A138A985BA8552966D935C
:101B70007D938D939C935597077F0093E205D70142
:101B800051961C928091870681FF0FCDE985FA85D9
:101B9000818985FF0ACD22A533A544A555A560E01E
:101BA00070E080E89FE30E94493660930C067093D2
:101BB0000D0680930E0690930F06E1E0D701519633
:101BC000EC93F3CCE985FA856289738984899589D8
:101BD0000E9440396093F8057093F9058093FA05E7
:101BE0009093FB05CCCFC092F405D092F505E0921E
:101BF000F605F092F7051092000610920106109279
:101C00000206109203062DCD1092F30540920406B1
:101C100050920506609206067092070612FF6AC08F
:101C2000109200061092010610920206109203060E
:101C3000C12CD12C760189859A850E9428066D8752
:101C40007E878F87988B9B01AC010E94A1386987A2
:101C50007A878B879C87A50194010E943F3687FF76
:101C600093C029853A854B855C85C501B4010E94E6
:101C700049352D813E814F8158850E94A1389B01B5
:101C8000AC01C301B2010E94493560930406709310
:101C90000506809306069093070620E030E0A90130
:101CA0000E943F3618160CF449C032E03093F30519
:101CB00029813A814B815C81CA01B9010E944A3570
:101CC000A30192010E94A1389B01AC01C501B4019E
:101CD0000E9449350E9440396093000670930106C6
:101CE00080930206909303068091E20588608093BA
:101CF000E205B7CCE0913602EF5FE03109F4E0E0B5
:101D000080915705C12CD12C76018E1751F022E31A
:101D10002E9FF0011124E95CFD4FC288D388E4882E
:101D2000F588C701B6010E944039609300067093A0
:101D3000010680930206909303067DCFA7019601CA
:101D400069857A858B859C850E9449352D813E81E8
:101D50004F8158850E94A138609308067093090648
:101D600080930A0690930B068D859E85AF85B88972
:101D70008093FC059093FD05A093FE05B093FF05AD
:101D800093E09093F3056DCCA7019601C501B401D2
:101D90000E9449352D813E814F8158850E94A1388E
:101DA000A30192010E944A3520E030E040E05FE369
:101DB0000E94A138698B7A8B8B8B9C8B20E030E062
:101DC000A9010E94613818160CF094C0A301920179
:101DD00069897A898B899C890E943F3687FF88C0F0
:101DE000A701960169857A858B859C850E94493576
:101DF0002D813E814F8158850E94A1389B01AC0105
:101E0000209308063093090640930A0650930B0668
:101E100069897A898B899C890E9461381816BCF57A
:101E20002D853E854F8558892093FC053093FD050F
:101E30004093FE055093FF05A501940169857A85BD
:101E40008B859C850E943F36811104C031E0309320
:101E5000F30507CCA501940169857A858B859C855E
:101E60000E9449352D813E814F8158850E94A138BD
:101E70009B01AC01C301B2010E9449356093040685
:101E8000709305068093060690930706EACB89892E
:101E90009A89AB89BC898093040690930506A09328
:101EA0000606B09307068093080690930906A09350
:101EB0000A06B0930B0629813A814B815C81CA01E5
:101EC000B9010E944A3529893A894B895C890E9467
:101ED000A138A70196010E944A350E9440396093BB
:101EE000FC057093FD058093FE059093FF05B9CB2B
:101EF00092E047CF8091000690910106A0910206E2
:101F0000B091030610920406109205061092060680
:101F1000109207068093FC059093FD05A093FE05A3
:101F2000B093FF059ECB81E08DAB37CC098F1A8F24
:101F300039813B8F4D814C8F49CC20E030E040E02F
:101F40005FE3C501B4010E94A1389B01AC01672D7C
:101F5000762D8BAD9AAD0E944935A70196010E945E
:101F6000A1389B01AC01698D7A8D8B8D9C8D0E946F
:101F700049358B0189839D83A5019401672D762DB9
:101F80008BAD9AAD0E9449356AC05A962D913D910C
:101F90004D915C915D97C701B6010E94A1384B013C
:101FA0005C0120E030E040E05FE30E94A138272D93
:101FB000362D4BAD5AAD0E944A35A70196010E94BD
:101FC000A1389B01AC01698D7A8D8B8D9C8D0E940F
:101FD00049358B0189839D839B01AC016D8D7E8D7D
:101FE0008F8D98A10E94613818168CF52D8D3E8D2D
:101FF0004F8D58A16DA17EA18FA198A50E94493552
:102000009B01AC010E944A356B017C012D893E8900
:102010004F89588D672D762D8BAD9AAD0E944A352C
:102020009B01AC01C701B6010E9449366B017C01DE
:10203000BDA9BD877D886E88EF89EBAFF88DFAAFBB
:102040000D8D1E8D2F8D298338A13D8319CCA501BF
:102050009401672D762D8BAD9AAD0E944A35762E70
:10206000672E8BAF9AAF0CCC2D893E894F89588D46
:10207000C701B6010E94A1389B01AC01698D7A8D20
:102080008B8D9C8D0E9449358B0189839D8329A569
:102090003AA54BA55CA50E943F3687FFF1CB29A549
:1020A0003AA54BA55CA5698D7A8D8B8D9C8D0E9480
:1020B00049352D893E894F89588D0E9449366B01DB
:1020C0007C0109A51AA54BA549835CA55D8382E027
:1020D0008D87D6CB5A962D913D914D915C915D9710
:1020E000C701B6010E94A1384B015C01AC019B0104
:1020F000672D762D8BAD9AAD0E946138181644F588
:1021000020E030E040E05FE3C501B4010E94A13867
:102110009B01AC01672D762D8BAD9AAD0E944935A0
:10212000A70196010E94A1389B01AC01698D7A8DAF
:102130008B8D9C8D0E9449358B0189839D832DA5B4
:102140003EA54FA558A90E94613818160CF414CF6B
:102150002DA53EA54FA558A9698D7A8D8B8D9C8D97
:102160000E9449359B01AC010E944A356B017C01FC
:102170002EA93FA948AD59AD672D762D8BAD9AADEF
:102180000E944A359B01AC01C701B6010E94493645
:102190006B017C017EA86FA8B8ADBBAFE9ADEAAF1B
:1021A0000DA51EA5FFA5F98328A92D8369CB29A913
:1021B0003AA94BA95CA9B80189819D810E94613827
:1021C00018168CF42EE333EC4EE259E369A17AA1A0
:1021D0008BA19CA10E944A3569A37AA38BA39CA3DF
:1021E000A201910163CB872D962DABADBAAD809343
:1021F000F8059093F905A093FA05B093FB054D857A
:102200004093F30571CB10923E0610923F06109258
:10221000400610924106109210069DCB2091E305D6
:102220003091E4054091E5055091E605C201B10108
:102230000E944A352B013C0129853A854B855C85F6
:10224000C501B4010E9449359B01AC01C301B20133
:102250000E9449364B015C0120EC31EE44E65EE41D
:102260000E94A1380E9428360E94C236603D57E085
:1022700075078105910508F066C027E0A989BA892C
:102280002A9FF0012B9FF00D1124E65AFA4F158278
:1022900027E0A989BA892A9FF0012B9FF00D11240C
:1022A000E65AFA4F738362838091590580938405BF
:1022B0008F5F863009F4A1C080935905E091110623
:1022C000F0911206C801A981BD81868F978FA0A3C6
:1022D000B1A3C092E705D092E805E092E905F0923B
:1022E000EA0529853A854B855C85C701B6010E94C0
:1022F0004935A50194010E94A1386093E3057093CC
:10230000E4058093E5059093E6052091F40530916E
:10231000F5054091F6055091F705B80189819D8139
:102320000E943F36811114C9F090350620E030E05C
:10233000A901B80189819D810E94613818160CF0AD
:102340005FC08F2D55CB603A3FE073078105910543
:10235000A0F5A7E049895A89A49FF001A59FF00D37
:102360001124E65AFA4FB1E0B583A7E049895A89AA
:10237000A49FF001A59FF00D1124E65AFA4F258184
:10238000022E04C096958795779567950A94D2F7A3
:102390004D855E8502C0440F551F2A95E2F7518393
:1023A00040836115710551E08507910508F470CFF0
:1023B0004FEF5FEF5383428377CF6034EFE17E07C7
:1023C0008105910568F447E029893A89429FF00127
:1023D000439FF00D1124E65AFA4F52E05583C5CFC2
:1023E00027E0A989BA892A9FF0012B9FF00D1124BB
:1023F000E65AFA4F33E03583B8CF109259055ECFD5
:10240000F2FC9FCF109212061092110690913602A4
:1024100080915705891709F49BC881E0890F8031A5
:1024200009F480E020913502921302C080933502B6
:10243000809336028DC82F923F924F925F926F9297
:102440007F928F929F92AF92BF92CF92DF92EF9244
:10245000FF920F931F93CF93DF93CDB7DEB7C25494
:10246000D1090FB6F894DEBF0FBECDBF3B0100917E
:102470005705202E312C22E3029FA0011124BA011E
:10248000695C7D4F7CAB6BABFB0111922A95E9F740
:10249000F3012085FB01218BF30144815581668185
:1024A0007781EBA9FCA946A757A760AB71AB21FFC9
:1024B000F0C02CE0E8E1F6E0DE01599601900D92C3
:1024C0002A95E1F789AB9AAB22E436E021963FAF3B
:1024D0002EAF2197BE01635F7F4F7EAF6DAFCE0100
:1024E00049969CAF8BAFEBA9FCA9FAAFE9AF9E016F
:1024F0002B5D3F4F3EAB2DAB38AF2FAB10E082E3EF
:10250000829D2001839D500C1124B201695C7D4F96
:102510002B01CB010C9623969FAF8EAF239790E1B2
:10252000490E511CE9A9FAA961917191819191918A
:10253000FAABE9AB2196EEADFFAD2197819091907A
:10254000A190B1902196FFAFEEAF2197A501940124
:102550000E94A1380E946E38EDADFEAD619371937B
:1025600081939193FEAFEDAFEBADFCADC190D190F7
:10257000E190F190FCAFEBAF6C197D098E099F09DA
:102580009B01AC0197FF07C022273327A901261B17
:10259000370B480B590BE9ADFAAD219331934193B9
:1025A0005193FAAFE9AF2396EEADFFAD2397C0800C
:1025B000D180E280F380C216D306E406F50610F45B
:1025C00069017A012396EEADFFAD2397C082D182D7
:1025D000E282F3820E94F336A50194010E944936FB
:1025E000EFA9F8AD6193719381939193F8AFEFAB3D
:1025F00020E030E0A9010E943F3687FF0BC090E247
:10260000112321F090E8113009F490E4F201808167
:10261000892B80831F5F133009F084CF80E0CD28A1
:10262000CE28CF2809F4CBC0CE0185960E947F0921
:102630004B015C0122E3229DC001239D900D1124DA
:102640009C01295C3D4F7901F901868E978EA0A2ED
:10265000B1A2BE016B5D7F4F8AE596E00E941E0825
:10266000F701628F738F848F958FBE016B5D7F4FF3
:102670008EE496E00E941E08F70166A377A380A768
:1026800091A7118910FF09C062A773A784A795A716
:1026900010C02CE0E1E0F1E00FCFF30120813181A7
:1026A0004281538113FDA5C0F70122A733A744A798
:1026B00055A780913602081711F011FFA0C082E3E0
:1026C000829DF001839DF00D1124E95CFD4F128A7B
:1026D000138A148A158A12A213A214A215A282E3E5
:1026E000829D8001839D100D1124095C1D4FF8010E
:1026F000818981FD63C08BA99CA90E9428066B017A
:102700007C018090190190901A01A0901B01B0905B
:102710001C01AC019B01C501B4010E943F3687FF3B
:1027200036C1A5019401C501B4010E94A138F80188
:10273000668B778B808F918F82E3829D8001839D52
:10274000100D1124095C1D4FF80182A093A0A4A0D4
:10275000B5A0A501940166897789808D918D0E942D
:10276000613818162CF4F801868A978AA08EB18EEB
:10277000C0921901D0921A01E0921B01F0921C0143
:102780008CE0FE01B596ADE0B1E001900D928A9526
:10279000E1F78CE0FE013D96A1E0B1E001900D92E1
:1027A0008A95E1F780910001809357058F5F803112
:1027B00009F480E0809300010E94B30681E0CE5BC3
:1027C000DF4F0FB6F894DEBF0FBECDBFDF91CF91C4
:1027D0001F910F91FF90EF90DF90CF90BF90AF903F
:1027E0009F908F907F906F905F904F903F902F9031
:1027F0000895C501B4010E94A138F70145CF2DE02D
:1028000031E03AAB29AB8E010F5F1F4F6DA97EA956
:10281000645F7F4F7CAF6BAFC12CD12C76010FABC7
:1028200019AFE9A9FAA981909190A190B190FAAB62
:10283000E9ABEDA9FEA94190519061907190FEAB7A
:10284000EDABA3019201C501B4010E94A1389B0127
:10285000AC01C701B6010E9449356B017C01A5019D
:102860009401C301B2010E944935F801619371934B
:10287000819391938F012BAD3CAD6DA97EA9261755
:10288000370779F62FEE3FEF4FE75FE3C701B60159
:102890000E94613818164CF482E3829DF001839DFA
:1028A000F00D1124E95CFD4F16CF2FEE3FEF4FE7FF
:1028B0005FEBC701B6010E943F3687FF11C082E37C
:1028C000829DF001839DF00D1124E95CFD4F89E9A3
:1028D00096E7A6E9BEE782A393A3A4A3B5A3FFCE80
:1028E0008FA999AD0E947F096FA979AD8AE596E01D
:1028F0000E941E084B015C01A701960160E070E098
:1029000080E89FE30E94493520E030E040E05FE34B
:102910000E94A1380E9440396B017C01209177060A
:10292000309178064091790650917A06C501B4013C
:102930000E94A138A70196010E94A1384B015C01B9
:10294000A701960160E070E080E89FE30E944935AE
:102950009B01AC01C501B4010E9449366B017C01A9
:1029600020E030E0A9010E943F3687FF03C0C12C60
:10297000D12C760182E3829DF001839DF00D11241C
:10298000E95CFD4FC2A2D3A2E4A2F5A2A8CEA701A2
:102990009601C701B601C9CE019708F40895EFE981
:1029A000FFE03197F1F700C00000F6CF80916F0093
:1029B0008D7F80936F0080918100887F81608093FC
:1029C00081001092110280917506909131068F3F1F
:1029D000A1F420911406211110C0903881F490E0E8
:1029E0000E94CC1481E09091870692FF02C091E092
:1029F0008927882331F0289A0895943081F780E060
:102A0000F2CF28980895CF93DF930E94D614E1EE79
:102A1000F5E080E3DF011D928A95E9F7C2E1D2E09B
:102A200083E2FE0111928A95E9F710921206109244
:102A30001106109258051092840581E08093590583
:102A4000109211020E94FC02809110028F878BB1BC
:102A5000837E90910F02892B8BB98BB18F719091EE
:102A60001002892B8BB9DF91CF9108959091320696
:102A7000911113C0811112C010923E0610923F06B0
:102A800010924006109241068EE08093B30084E6D7
:102A900090E00E94CC1410923C0608958031C9F455
:102AA0002D989091870691FF05C0803219F440E07F
:102AB00050E0BA01CB01BA010E94EB0981110BC0B1
:102AC0008EE08093B3008091B00080688093B00066
:102AD000DECF2D9AE6CF80E18093B3008091B000E5
:102AE00080688093B00084E690E00E94CC148091CE
:102AF000B0008F778093B000CECF239A83E080938D
:102B0000B00087E08093B100259A20918306309130
:102B10008406409185065091860660917F067091EB
:102B2000800680918106909182060E9449359B0122
:102B3000AC0160E070E08EE793E40E944936609358
:102B40000B0270930C0280930D0290930E028EE0A4
:102B50008093B30084E690E00C94CC142F923F92C3
:102B60004F925F926F927F928F929F92AF92BF929D
:102B7000CF92DF92EF92FF920F931F93CF93DF9349
:102B8000CDB7DEB7A4970FB6F894DEBF0FBECDBFAA
:102B900010911406112349F181E08093310686E6F5
:102BA00091E00E947104812F0E944C040E947F04D6
:102BB00084EF91E00E94CC141150123088F48AEC1A
:102BC00092E00E94710488EB92E00E9471040E94DE
:102BD000D70580E10E9441028091130684FFFCCF5B
:102BE0008FB7F894109214068FBF1091130611231B
:102BF00009F4A1C214FF1CC081E080933206A496A0
:102C00000FB6F894DEBF0FBECDBFDF91CF911F91FD
:102C10000F91FF90EF90DF90CF90BF90AF909F907B
:102C20008F907F906F905F904F903F902F9008957E
:102C300010FFCDC08CE0E8E1F6E0DE01599601908E
:102C40000D928A95E1F7BE01675E7F4FCE010D962A
:102C50000E948F028CE30E943203809131068830FB
:102C600009F42FC108F00AC1813009F433C108F416
:102C700023C1823009F431C1843009F428C1809124
:102C80007606282F2170922E80FF3CC180913D0650
:102C9000882309F437C182E991E00E947104CE01D2
:102CA0000D960E9433048091760681FF1DC086E850
:102CB00091E00E9471049091570580913602981717
:102CC00008F46EC1815F891B0E944C048CE20E9453
:102CD00032038091090290910A02981708F462C1A8
:102CE0008058891B0E944C0481E891E00E94710485
:102CF000809131068C7709F457C16091F805709185
:102D0000F9058091FA059091FB050E9417048CE269
:102D10000E94320360913E0670913F06809140060A
:102D20009091410640E00E946D030E947408E82ED5
:102D30000E94CB02F82E06B1007280911706082778
:102D40008E2D8F29802B59F18CE791E00E94710420
:102D5000002319F080E50E943203EE2079F0E0FEB6
:102D600003C088E50E943203E1FE03C089E50E94AA
:102D70003203E2FE03C08AE50E943203FF2079F0AD
:102D8000F0FE03C082E50E943203F1FE03C088E436
:102D90000E943203F2FE03C083E50E943203809159
:102DA0003D06882309F404C1815080933D060091BB
:102DB0003C06002309F415C1015000933C068EE344
:102DC0000E9432030E947F0481E00E944102812F11
:102DD000887E09F460C180913106982F937009F0C4
:102DE00049C18872A9F080913306807C89F40E94E1
:102DF000D80282E08093350680913106803241F41A
:102E000080E217FD0CC08091330680688093330602
:102E100080913106811103C091E09093330616FF33
:102E200007C085FD05C090913306906490933306EA
:102E300013FF05C0807E19F480E18093310615FFF1
:102E400019C18AEC92E00E94710486E792E00E9428
:102E500071040E94D7058091330687FD06C19091C9
:102E60003106903409F0FEC083FF04C0837E826087
:102E70008093330680E480933106F7C0803221F1DD
:102E800098F4803109F0FBCE8091330687FD1CC099
:102E90008AEB91E00E9471048091330680FF2EC07E
:102EA00080E30E943203EBCE8034D1F0803809F009
:102EB000E6CE89E991E002C084EC91E00E947104C1
:102EC000DECE80EC91E0FACF86EB91E0F7CF81EB9C
:102ED00091E0F4CF8BEA91E0F1CF85EA91E0EECF7B
:102EE0008FE991E00E9471048091330683FF02C054
:102EF00083E3D7CF82FF04C085FFD2CF81E3D1CF58
:102F000082E3CFCF4090D3065090D4066090D50690
:102F10007090D6066BEBA62E66E0B62ECE0101961B
:102F20006C01FE013D967F0100E0F5016191719118
:102F3000819191915F0120853185428553850E9461
:102F40004A35F60161937193819391936F01023039
:102F500041F4A30192010E944A3569877A878B87E1
:102F60009C87911012C0F6013497208131814281F3
:102F70005381F70160817181828193810E9449357B
:102F8000F70160837183828393830F5FF4E0EF0E18
:102F9000F11C033051F691107ECE8BE891E07DCE8E
:102FA000815091CE81509DCE60E070E0CB01ADCEDE
:102FB000809131068C7799F08DE180933D06809168
:102FC0003C06811103C081E080933C0686E791E0D6
:102FD0000E947104CE0101960E943304E8CE89E07C
:102FE000ECCF809131068C77C1F183E180933C0670
:102FF00081E791E00E947104809138060E944C04A0
:103000008CE20E943203809139060E944C048CE2CB
:103010000E94320380913A060E944C048091B000D5
:10302000F12C87FF04C02D9B1AC052E0F52E439B64
:10303000CDC100E48DE691E00E947104FF2031F0E3
:1030400021E083E5F21283E40E943203002309F4B5
:10305000B6CE86E40E943203B2CE89E0C7CFFF2409
:10306000F394E5CF903809F005CF80913306806264
:103070008093330617FF0CC080913106813029F40C
:103080008091330685608093330680E88093310613
:1030900088EE0E94410211FF28C0812F887611F529
:1030A00080913106803441F48091330685FD04C05F
:1030B00084FFEAC01092310680913106882309F41A
:1030C000E9C084FF0FC09091330690FF0BC08031A0
:1030D00009F0E0C080913B06882309F4DBC08860DA
:1030E00080933B0682E00E94410212FF24C090912F
:1030F000330680913106807D09F4E5C08091340665
:103100008111E1C097FDE1C00E94D8028091360292
:10311000809335020E94B3068091350681FF05C079
:1031200090913306916090933306897F80933506A2
:1031300084E00E94410290911506992309F44CC045
:103140008FB7F894109215068FBF40913806842FE0
:1031500090FD84E691FD865F92FD8A5093FD8F5F1E
:1031600094FD8150893C08F088EC8A3008F48AE0AC
:1031700030913906232F95FD24E696FD22E397FD35
:1031800029E1481302C0231739F1809338062093B0
:10319000390610923C067090360260905705172D44
:1031A00089E9282E96E7392E26E9422E3EE7532E4E
:1031B00042E3842E1611A4C0C101D20180931901EB
:1031C00090931A01A0931B01B0931C010E94D80296
:1031D000709235020E94B30610911606112309F46D
:1031E0004BC08FB7F894109216068FBF90913A0695
:1031F000892F10FD84E611FD865F12FD8A5013FDB4
:103200008F5F14FD8150893C08F088EC8A3008F407
:103210008AE09817A1F09091310680933A069111B7
:10322000C9C04091A2065091A3066091A406709176
:10323000A5068091A0060E94361510923C0680914A
:10324000310615FF09C0803139F490913B06911188
:10325000B7C092E090933B06107C71F0882311F088
:10326000887351F010919F0616FFAEC01F7B812F0F
:103270000E94620910939F06809131068C7F09F4A9
:10328000BECC0E948A0ABBCC82FF16CF8860809396
:10329000330612CF109235060E949B06892B71F0DF
:1032A0008091330686FD0AC01092330688E0809331
:1032B00031060E948A0A0E94190314CF1092330625
:1032C000109231060FCF97FF0AC0109235060E9468
:1032D0006E090E9403150E94AA080E9406068091AA
:1032E000330685FF08C08F7781608093330680E4C2
:1032F000809331061DCF109233061092310618CFFD
:10330000A12EB12C189DC0011124895C9D4F0E94F3
:103310002806962EC72ED82E092F9101A2010E94B1
:1033200061388A9C70018B9CF00C11241816ACF546
:10333000C701895C9D4F7C019101A201B101C201CD
:103340000E94A138F701668B778B808F918F8A9CC2
:10335000C0018B9C900D11249C01295C3D4F79018B
:10336000F90122A033A044A055A0A20191016689D1
:103370007789808D918D0E94613818162CF4F701A1
:10338000268A378A408E518E1F5F103109F410E073
:10339000292C3C2C4D2C502E0DCF9701295C3D4FF4
:1033A0007901292D3C2D4D2D502F692D7C2D8D2DF2
:1033B000902FC6CF809135068860809335063DCF2B
:1033C00090FF4ACF946046CF106451CFF11032CEB7
:1033D000F6CC8091130684FD21C080E10E944B024F
:1033E0008EE08093B30084E690E00E94CC14439872
:1033F00090913106892F8C7221F480913506867068
:1034000069F0943049F480911406811103C086E07C
:103410000E943B020C94D61483E0FACF08951F93C8
:10342000CF93DF93142F20E030E040EA51E40E9474
:10343000A1380E9428360E94C236EB012097C9F0BD
:1034400080913206811115C011110DC00E943D1AE4
:103450002FEF80E792E0215080409040E1F700C0DC
:1034600000002197EBCF0E94AE158091330681FFBB
:10347000EFCFDF91CF911F910895CF92DF92EF921E
:10348000FF921F93CF93DF930E94AE158091330676
:10349000882309F46EC00E949B06009709F03FC084
:1034A000C091A00680919F06C82BC090A206D09024
:1034B000A306E090A406F090A5068091870681FF00
:1034C00003C080E20E942902DC2FD07311E0C07C8F
:1034D00080913306882309F44CC0909132069111F3
:1034E00048C080FF19C090913106292F207C09F433
:1034F0008DC082FD23C010923B0640E050E0BA012F
:1035000080E00E94361580E00E94620980913306B7
:103510008D7F8460809333060E94AE15D9CFFC0165
:1035200021892073439908C0C0E0C22BFC01C6A4C6
:10353000D7A4E0A8F1A8C1CFC0E4F7CF903821F517
:103540008AEC92E00E94710483E392E00E9471048D
:103550000E94D70540E050E0BA0180E00E94361595
:1035600080E00E9462090E94D6148091320688236E
:1035700041F0DF91CF911F91FF90EF90DF90CF90BE
:1035800008950E94AE15F1CF903419F48F7D809389
:1035900033068091330683FFBFCF9091A006992315
:1035A00059F081FD09C08091870681FF22C080917A
:1035B000350688608093350680919F06882371F0D8
:1035C0008091330681FD0AC08C2F0E94620941E080
:1035D00060E070E080E89FE30E940F1A809133065C
:1035E00081FD9ACF80618093330682E00E944B0276
:1035F00093CFB701A6018D2F0E94361541E060E000
:1036000070E080E890E40E940F1AD6CF80913B06CC
:103610008823C9F181FF0DC08091A006882351F154
:1036200040E050E0BA0180E00E94361510933B065E
:1036300073CF8C7009F470CF8091A006882399F025
:103640008AEC92E00E9471048CE392E00E94710483
:103650000E94D7058091870681FF0FC080913506B3
:1036600088608093350680913B0683FF03C082E02B
:103670000E944B0210923B064FCFB701A6018D2F3F
:103680000E943615F0CF8091350683FF45CFB701F4
:10369000A6018D2F0E94361580913506877F809375
:1036A00035063ACF0E94AB060E943D1A8091320641
:1036B000811108C00E949B06892BB1F780913106C9
:1036C000883091F30895CF93DF9391E5899FE001CE
:1036D0001124DD5F40E550E0BE0181E197E00E94EA
:1036E0002009892B79F4109211070E94521B40E5A2
:1036F00050E061E177E0CE010E94D00880E0DF91E8
:10370000CF91089581E0FBCF0E94521B10923D069D
:103710000895CF92DF92EF92FF92CF93909131066E
:10372000923079F06A017B01C82F0E94521BB701C9
:10373000A6018C2FCF91FF90EF90DF90CF900C944B
:103740003615CF91FF90EF90DF90CF9008950F93B3
:103750001F93CF93C82F8B010E94521B2DE0C29F55
:10376000C00111244CE050E0B8019E5FCF911F9141
:103770000F910C94D0081F93CF93DF93182FEB0178
:103780008DE0189FB00111247E5F4CE050E0CE0127
:103790000E942009892B71F48CE0FE0111928A9518
:1037A000E9F7BE01812F0E94A71B80E0DF91CF9136
:1037B0001F91089581E0FACFEF92FF920F931F932C
:1037C000CF93DF93CDB7DEB72C970FB6F894DEBF5B
:1037D0000FBECDBF182F80FF0BC085E5E9EDF1E0EE
:1037E000A2E4B6E005900D928A95E1F70E940B09DC
:1037F00011FF10C0CE0101967C018CE0F7011192FF
:103800008A95E9F700E0B701802F0E94A71B0F5FA0
:103810000830C9F712FF14C060E080E093E00E9416
:10382000B00860E081E093E00E94B00860E081E5CC
:1038300093E00E94B00860E082E593E00E94B00847
:1038400013FF0AC060E08EEA93E00E94B00860E0D7
:103850008FEA93E00E94B0082C960FB6F894DEBF72
:103860000FBECDBFDF91CF911F910F91FF90EF90D1
:103870000895FF920F931F93CF93DF938C01EB0179
:103880008091870685FF23C0F090310680E2F8160C
:1038900011F1C8010E9454028823C9F081E080938D
:1038A000340688E0F8120CC00E944B020E943D1AB8
:1038B0008091320681110BC0809131068111F6CFC3
:1038C0000E94E91982E00E943B020E943D1A809109
:1038D0003106823041F10E943D1A809132068111F9
:1038E00022C09091360280910001981303C00E947B
:1038F000AB06F1CFBE01C8010E941B12811113C09B
:103900008091870681FF0FC0888584FF0CC04C81A1
:103910005D816E817F8180E1DF91CF911F910F9159
:10392000FF900C94891BDF91CF911F910F91FF9015
:1039300008952F923F924F925F926F927F928F9253
:103940009F92AF92BF92CF92DF92EF92FF920F932E
:103950001F93CF93DF93CDB7DEB7CC54D1090FB609
:10396000F894DEBF0FBECDBFE7EDF6E08AE3DF01DE
:103970001D928A95E9F78BE0E7E9F6E0A8EDB6E05D
:1039800001900D928A95E1F7809111078432A1F0A0
:103990001A8E1BA2312C212C1EA61DA610E01B8EF8
:1039A0001F8EEE24E394F12CAAE0AA2EB12CB1E6EE
:1039B0008B2EB3E09B2E4EC181E08093D8061092EF
:1039C000D90683E08A8FB1E0BBA3E4CF9FEB9D0DC6
:1039D0009A3110F00C94272A8F5F8A8FBE016A5E9D
:1039E0007F4FCE014A960E947C01882311F40C94EB
:1039F0002A2A4E885F88688C798CC301B2010E94A4
:103A000084390E94C236062F70E090E080E00E9468
:103A1000F3369B01AC01C301B2010E94493520E09D
:103A200030E048EC52E40E94A1380E940E390E9416
:103A3000C236CB01E7E4DE1629F1FDE4DF1609F416
:103A400065C1EAEBED0DE53108F02CC00E2E000C3F
:103A5000FF0BE35DF24E0C94EC39CF1E521D521D4C
:103A6000FC1E071F121F1D1F521D211F521D2F1F3D
:103A7000521D391F431F4D1F521D521D521D5D1FE8
:103A80006A1F771F083209F4DDC030F5043160F495
:103A9000013108F098C0043009F474C0B0F00A3065
:103AA00009F468C084E196C00C3109F463C040F4A5
:103AB0000631C0F725E1201B2093DA0626E087C0F7
:103AC0000E3109F457C0063269F74F8D41110C943D
:103AD0002D2AA2E0AF8F28C00D3309F4AEC0E0F468
:103AE000053309F44FC088F40B3211F00133D1F6DD
:103AF000BF8DB1110C942D2A013309F095C010929D
:103B0000DD06E3E0EF8F28E04FC00C3358F6065394
:103B10000093DE0629E05BC00C3508F50A3508F095
:103B200073C0003509F0BECF0093D80621E00632FD
:103B300009F04DC08431910551F08E31910539F075
:103B40008832910521F08233910509F0ABCFB501A0
:103B50000E94B63966576093D80621E025C00C351F
:103B600049F00F3508F09ECF2EE5201B2093D90693
:103B700025E02DC0009731F42F8D21110C942D2AB2
:103B800031E03F8F0093D706202F2D7F2C3119F085
:103B900020E00C35E1F4009719F00A9709F082CF84
:103BA000600F6093D70620E0C70102C0880F991FFD
:103BB0002A95E2F72DA53EA528233923232B09F4C6
:103BC00043C085E107C001510093DC0622E0892B48
:103BD00059F387E1C45BDF4F0FB6F894DEBF0FBE29
:103BE000CDBFDF91CF911F910F91FF90EF90DF90AC
:103BF000CF90BF90AF909F908F907F906F905F908D
:103C00004F903F902F900895892B29F40A550093E7
:103C1000DB0623E0C9CF6A30710509F043CF0A35CE
:103C200009F440CF24E0C0CF0A9709F03BCFF1E080
:103C3000F093DD0623E02F8F66CF892B09F032CF7A
:103C40002AE0B2CF27E0C3CFADA5BEA5A82BB92BE4
:103C5000BEA7ADA78A8DE82FF0E0EF5EF84FD080C9
:103C6000D110B4CEBB8DBB2329F0EF8DE11102C082
:103C7000F2E0FF8F25FE0FC08091F4069091F506CB
:103C8000A091F606B091F70681389649A849B1058A
:103C900014F00C94392A3BA1332309F435C120FEDA
:103CA00045C18091DA068130B1F423E333E34BEC74
:103CB00051E46091E3067091E4068091E5069091ED
:103CC000E6060E94A1386093E3067093E4068093B1
:103CD000E5069093E60630FC10C08091A206909114
:103CE000A306A091A406B091A50680930007909327
:103CF0000107A0930207B09303078091D706843091
:103D000009F02FC126FC2BC18CE164CF892B09F06F
:103D100060CF063050F4033098F00430D9F080E1E1
:103D20000530C9F41092E10618C0083008F4BACE84
:103D30000A3048F10E3109F0B5CE0093DF0604C019
:103D4000002321F00130C9F78BE008C0B3E0B09345
:103D5000DF06FACF80E28093E1068CE0F70102C033
:103D6000EE0FFF1F8A95E2F7CF012DA53EA52E236A
:103D70003923232B09F025CF2DA53EA52E2B392B3A
:103D80003EA72DA767CF093039F08091E006806407
:103D90008093E0068DE0E2CF1092E006FBCF4092E8
:103DA000E3065092E4066092E5067092E60680E033
:103DB0006701082E02C0CC0CDD1C0A94E2F79601C4
:103DC00022213321232B11F00C94332AD40102C079
:103DD000B595A7958A95E2F7A0FF0BC020E030E0EB
:103DE000A901C301B2010E943F3687FF02C00C94B3
:103DF000362A2C283D282ECF4092E7065092E8061E
:103E00006092E9067092EA06116081E0D1CF40929B
:103E1000EB065092EC066092ED067092EE06126090
:103E200082E0C6CF4092EF065092F0066092F10613
:103E30007092F206146083E0BBCF0093F30684E037
:103E4000B7CFC301B2010E94BB366093F4067093F2
:103E5000F5068093F6069093F70685E0A9CF409289
:103E6000F8065092F9066092FA067092FB0686E018
:103E70009FCF4092FC065092FD066092FE06709223
:103E8000FF0687E095CF40920007509201076092AD
:103E900002077092030788E08BCF20E030E04FE705
:103EA00053E4C301B2010E946138181614F40C9453
:103EB000302A0093040789E07BCF40920507509297
:103EC000060760920707709208073B8D31603B8FB1
:103ED0008AE06ECF4092090750920A0760920B0762
:103EE00070920C074B8D42604B8F8BE061CF4092FC
:103EF0000D0750920E0760920F07709210078B8D7E
:103F000084608B8F8CE054CF8091D906813081F40E
:103F10004F8D423009F0DFCE8091D806803509F40C
:103F2000DACE882309F4D7CE20FCD5CE86E152CE56
:103F3000809198068111CFCE20FCB3CE8091A60649
:103F40009091A706A091A806B091A9068093E306D8
:103F50009093E406A093E506B093E606BCCEE89401
:103F600026F88091DC06882359F0813009F4BBC023
:103F700022961FAE2297A2E0ABAFB1E0B9AF07C067
:103F800082E022968FAF229791E09BAF19AE80918D
:103F9000DA06813071F5E7EDCE2EE6E0DE2EF12C6B
:103FA000E12C2B8DA22EB12CC5010E2C02C09595B3
:103FB00087950A94E2F780FF12C023E333E34BECCA
:103FC00051E4D6019E966D917D918D919C91D197F2
:103FD0000E94A138F60166A777A780AB91ABFFEFEF
:103FE000EF1AFF0A24E0C20ED11C33E0E316F104FD
:103FF000D9F64F8D433049F48091DD06813029F4A4
:104000008B8D843011F00C943C2A8CE0EBEBF6E0C5
:10401000DE01119601900D928A95E1F7ADA5BEA53E
:10402000B1FD69C00091D7060A3009F478C00C359B
:1040300009F419C19F8D933009F43FC0AB8DAA23B9
:10404000E1F1B091DB06BFA38091D3069091D40635
:10405000A091D506B091D60689A79AA7ABA7BCA711
:1040600097E9A92E96E0B92E27EDC22E26E0D22E92
:10407000F12CE12C9B8D892E912CC4010E2C02C0B9
:10408000959587950A94E2F780FD5DC1F501808DD5
:10409000918DA28DB38DF60186A797A7A0ABB1AB8A
:1040A000FFEFEF1AFF0A24E0A20EB11C34E0C30EAA
:1040B000D11C43E0E416F10401F70E3109F494C178
:1040C000053309F4B8C167EE76E086E00C3109F0FB
:1040D0002DC10E94BB1B882301F18B8D811188C1EA
:1040E00019A61F8EA9C0E1E02296EFAF22971BAE62
:1040F000F2E0F9AF4CCF8091DE06873010F08DE111
:1041000069CD90919D06891709F48CCFBE016F5F30
:104110007F4F0E94BB1B811185CF87E05BCDBB8D9C
:10412000B11102C08AE156CDC10180759927892B52
:1041300009F4EACD6091F8067091F9068091FA06CB
:104140009091FB060E9484390E94C2366730B8F60F
:104150008091F306843129F0823009F0A3CC27FC4A
:10416000A1CC662309F474C0615069A767EE76E0BC
:1041700089A50E94BB1B882381F20091F306409021
:10418000D3065090D4066090D5067090D60677ED91
:10419000C72E76E0D72EF12CE12C3B8D232F30E07B
:1041A00038A72FA38FA198A50E2C02C095958795AF
:1041B0000A94E2F780FF33C0D6019E968D909D90C1
:1041C000AD90BC90D197043109F046C0F701EE0FD5
:1041D000FF1FEE0FFF1FE956F94F20A931A942A991
:1041E00053A9608D718D828D938D0E944935A501F3
:1041F00094010E944935F601608B718B828B938B01
:10420000F2E0EF120CC0A30192010E9449356093C5
:10421000EF067093F0068093F1069093F206BFEFDD
:10422000EB1AFB0AE4E0CE0ED11CF3E0EF16F1042A
:1042300009F0B8CF2FEA22228091D8068FA38035CB
:1042400009F000C19B8D992309F406C18FE1C2CC0E
:10425000E091DE06E9A78ACF50968D929D92AD92AD
:10426000BC925397DCCF3B8D332309F45BCF409056
:10427000D3065090D4066090D5067090D60647E9D4
:10428000842E46E0942ECE0101967C0157EDA52E9A
:1042900056E0B52ED12CC12CA32FB0E0B8A7AFA308
:1042A0008FA198A50C2C02C0959587950A94E2F7EA
:1042B00080FF3EC0F7012081318142815381D401CA
:1042C00058966D917D918D919C915B970E94493597
:1042D000F50126A537A540A951A90E944935D50168
:1042E0009E966D937D938D939C93D197B2E0CB1264
:1042F0000CC0A30192010E94493560930D07709391
:104300000E0780930F0790931007FFEFCF1ADF0A75
:1043100024E0820E911C34E0E30EF11C44E0A40E74
:10432000B11C83E0C816D10409F0BACF19A684CF16
:10433000F40180A991A9A2A9B3A9F50186A797A71D
:10434000A0ABB1ABE2CF053309F4AACED6019E965D
:104350004D905D906D907C90D197BFA1B11133C00D
:10436000F701EE0FFF1FEE0FFF1F21E030E02C0FD3
:104370003D1FE20FF31FD501D0962D913D914D9138
:104380005C91D39760817181828193810E944A35CB
:10439000A30192010E944A35F60166A777A780AB78
:1043A00091ABF2E0EF127CCE29A53AA54BA55CA516
:1043B0000E944A3560930D0770930E0780930F0794
:1043C000909310076DCEA3019201D50158966D917F
:1043D0007D918D919C915B970E944A35F60166A76D
:1043E00077A780AB91AB5CCE67EE76E087E071CECD
:1043F000A7E9B6E0E7EDF6E090E080E04B8D242FF2
:1044000030E0A901082E02C0559547950A94E2F7BD
:1044100040FD0AC058964D915D916D917C915B97DE
:10442000408B518B628B738B01961496349683303C
:10443000910539F77BCF8091D806823008F476CF8A
:104440008EE1C8CBAF8DA23039F4BFA1B11173C0DA
:10445000EB8DEE2309F48DC02BA12170EBA1C101DE
:10446000E0FFD8C28E7DFF8DF111937E892B11F074
:104470000C94452A8E01035F1F4F89E0D8011D92DD
:104480008A95E9F7222309F4C8C28DA59EA5867BEB
:10449000892B11F00C94482A8091D706853319F0A6
:1044A00081110C94482A8091A2069091A306A091B4
:1044B000A406B091A506898B9A8BAB8BBC8B80919F
:1044C000A00690919F06892B4091E3065091E40647
:1044D0006091E5067091E6064D875E876F87788B61
:1044E00084608D8B8091870685FF06C085E097E00C
:1044F0000E9454028111CFC7B80185E097E00E9465
:10450000391C8091310681110BC00E949B06892BBA
:1045100039F080E2809331060E948A0A0E941903D2
:104520008CE0E5E0F7E0AFEAB6E001900D928A9505
:10453000E1F780E04FCB20E030E0A9016091E30695
:104540007091E4068091E5069091E6060E943F3660
:10455000882309F4EBCCFFA1FC38B9F060F4F23009
:1045600059F1F33061F1F13009F076CF3B8D311123
:1045700073CF1F8E71CF2FA12E3839F018F02F383E
:1045800009F06ACF9BA190619BA38FA18E588230C6
:1045900018F4ABA1A860ABA3BB8DBB2309F4C2CDBB
:1045A0004CE050E065E077E08FEA96E00E940C3A3C
:1045B000892B09F051CF6DC04BA144604BA38B8D6B
:1045C000882309F4AFCDB9ADAB2FB0E0BAABA9AB3E
:1045D000FBADEF2FF0E0FEABEDAB81E090E07C01B6
:1045E00009AC02C0EE0CFF1C0A94E2F70BAC02C04F
:1045F000880F991F0A94E2F7E82AF92A2B8D822F57
:1046000090E08E219F21892B09F439C7FD01EE0F1F
:10461000FF1FEE0FFF1FE952F94FAA0FBB1FAA0F92
:10462000BB1FA155B94F2D913D914D915C9166A550
:1046300077A580A991A90E9449352B013C01EDA9DC
:10464000FEA9EE0FFF1FEE0FFF1FE952F94FADA9B4
:10465000BEA9AA0FBB1FAA0FBB1FA155B94F2D9111
:104660003D914D915C9166A577A580A991A90E9485
:1046700049354B015C0127FEFFC0E89427F84CE068
:1046800050E065E077E08FEA96E00E940C3A892BD3
:1046900011F481E29FCA6091FC067091FD06809141
:1046A000FE069091FF062091DA06213071F423E393
:1046B00033E34BEC51E40E94A1386093FC06709305
:1046C000FD068093FE069093FF068091FC06909174
:1046D000FD06A091FE06B091FF0621968CAF9DAF1E
:1046E000AEAFBFAF2197A3019201C301B2010E94F7
:1046F000A13829966CAF7DAF8EAF9FAF2997A501EA
:104700009401C501B4010E94A1382D966CAF7DAF14
:104710008EAF9FAF2D9720E030E040E850E4219627
:104720006CAD7DAD8EAD9FAD21970E94A1382196D5
:104730002CAD3DAD4EAD5FAD21970E94A1382996BD
:104740002CAD3DAD4EAD5FAD29970E9449352D96FC
:104750002CAD3DAD4EAD5FAD2D970E9449356B013F
:104760007C0120E030E0A9010E943F3687FD8AC627
:10477000C701B6010E9440396B017C012D962CAD1A
:104780003DAD4EAD5FAD2D9729966CAD7DAD8EAD37
:104790009FAD29970E944A350E9440399B01AC0188
:1047A000C701B60190580E9449366B017C019FA158
:1047B000933021F4F7FAF094F7F8F09420E030E029
:1047C000A90121966CAD7DAD8EAD9FAD21970E9464
:1047D0003F3687FF13C0F7FAF094F7F8F09421966C
:1047E0008CAD9DADAEADBFAD2197B0588093FC06AA
:1047F0009093FD06A093FE06B093FF0609A91AA99F
:10480000000F111F000F111F0951194FA701960129
:10481000C501B4010E94A1389B01AC01C301B201E2
:104820000E94493520E030E040E05FE30E94A1387B
:10483000D8016D937D938D939C9313970DA91EA919
:10484000000F111F000F111F0951194FA7019601E9
:10485000C301B2010E94A138A50194010E944A350A
:1048600020E030E040E05FE30E94A138F80160837F
:10487000718382839383F0CDC12ED12CE122FD2060
:1048800083E2EF2809F4A6C9F1EF2F228091DA061E
:10489000813041F507ED16E0F12CE12CC6010E2C1C
:1048A00002C0959587950A94E2F780FF12C023E332
:1048B00033E34BEC51E4D80150966D917D918D918D
:1048C0009C9153970E94A138F801608B718B828B69
:1048D000938BFFEFEF1AFF0A0C5F1F4F23E0E216E6
:1048E000F104E1F6E9A9FAA9EE0FFF1FEE0FFF1F91
:1048F000E951F94FC080D180E280F380A701960191
:10490000C301B2010E9449352B013C01EDA9FEA96A
:10491000EE0FFF1FEE0FFF1FE951F94F80819181CC
:10492000A281B38189AB9AABABABBCAB9C01AD01AF
:10493000C501B4010E9449354B015C01A3019201FC
:10494000C301B2010E94A1382B013C01A5019401D1
:10495000C501B4010E94A1389B01AC01C301B201A1
:104960000E944A350E9440394B015C01A701960123
:10497000C701B6010E94A1386B017C0129A93AA99F
:104980004BA95CA9CA01B9010E94A1389B01AC01E5
:10499000C701B6010E944A350E9440396B017C0173
:1049A000C092FC06D092FD06E092FE06F092FF0651
:1049B000AC019B01C501B4010E9449354B015C016A
:1049C000E894B7F82AE037ED43EA5BE3C501B401A8
:1049D0000E94613818160CF03FCD20E030E040E036
:1049E0005FE3C501B4010E94613818160CF451CE82
:1049F0002FE632E143E85AE3C701B6010E94A1382D
:104A00009B01AC01C501B4010E94613818160CF07D
:104A100023CD3FCE8E7D9C7F26CD80918706F09062
:104A2000A00681FF12C08FA18150833018F0BBA176
:104A3000B064BBA3EB8DEE2309F443C1FF8DF230CC
:104A400009F03FC12BA120682BA38091F40690911F
:104A5000F506A091F606B091F7068093AB06909309
:104A6000AC06A093AD06B093AE068091D9068093B4
:104A70009806882311F088E08D8B8091E306909151
:104A8000E406A091E506B091E6068093A606909311
:104A9000A706A093A806B093A9068D879E87AF8727
:104AA000B88B8090000790900107A0900207B0900B
:104AB0000307A50194016091A2067091A30680915D
:104AC000A4069091A5060E943F369BA19074E92E02
:104AD000811103C0ABA1A5FF1FC0FF2069F0BBA1DE
:104AE000B7FD0AC040E050E0BA01E11002C0B501D4
:104AF000A4018F2D0E94891B8091000790910107CE
:104B0000A0910207B09103078093A2069093A30699
:104B1000A093A406B093A506E1100CC08091A20654
:104B20009091A306A091A406B091A506898B9A8BBB
:104B3000AB8BBC8B809104078093AA068091E10621
:104B40009091A006981751F049895A896B897C8900
:104B50000E94891B8091E1068093A0068D89909127
:104B6000A006892B8D8BF090E00680919F068F1513
:104B700069F080913106823029F00E94521B8F2DFE
:104B80000E9462098091E00680939F068D89909132
:104B90009F06892B8D8B8091D706843099F4809164
:104BA0003106823079F0C090F806D090F906E09096
:104BB000FA06F090FB060E94521B40E0C701B601C6
:104BC0000E940F1A8091DC0680939B068091DA0682
:104BD00080939906EF8DE33071F58091DD06809327
:104BE0009C06811108C010920D0710920E071092BA
:104BF0000F0710921007C0900D07D0900E07E0909D
:104C00000F07F0901007A70196016091D3067091ED
:104C1000D4068091D5069091D6060E943F3688230F
:104C200051F0C092D306D092D406E092D506F0920D
:104C3000D6060E94841B8091DE0690919D069817EF
:104C400069F080939D068CE0FE013196ABEBB6E0F7
:104C500001900D928A95E1F70E94841B8091DB06FA
:104C600080939A068091D706863209F47EC008F0B8
:104C70003FC08C3109F45FC08E3109F45CC08A30CA
:104C800009F443C08091D80680939706803509F4D3
:104C900049C3BF8DB23009F045C3813009F079C0F6
:104CA000BE01635F7F4F85E097E00E94391C8CE076
:104CB000E5E0F7E0AFEAB6E001900D928A95E1F702
:104CC00031C330E1F312C1CE9BA19074809197065D
:104CD0008150833038F4992309F4B7CE4BA1406258
:104CE0004BA3B3CE9111B1CE8BA180628BA3ADCE7D
:104CF0008C3509F440C0863609F443C0883209F087
:104D0000C1CF6FEA76E087E033C067EE76E089A531
:104D10000E94A71B80919D06F9A5F813B3CF8CE0E4
:104D2000E7EEF6E0ABEBB6E001900D928A95E1F785
:104D30000E94841BA7CF8D8981608D8B2F8D2223AC
:104D400029F0B80185E097E00E94391CB80187EE90
:104D500096E00E94391C8CE0E7EEF6E0AFEAB6E0A0
:104D600001900D928A95E1F78DCF6FEA76E086E0AB
:104D70000E94A71B87CF8CE0E5E0F7E0A7ECB6E048
:104D8000D3CFE7ECF6E08CE0DF011D928A95E9F7DE
:104D9000CFCF811105C08D8981608D8BB80183CF04
:104DA0008250823008F097C28091FC069091FD06F7
:104DB000A091FE06B091FF068F8F98A3A9A3BAA376
:104DC000A9AD94E0A99F70011124F701E155F94FB5
:104DD000F8A7EFA397012951394F3AA729A7D9017D
:104DE0004D905D906D907C90208131814281538106
:104DF000C301B2010E944A356DA77EA78FA798AB69
:104E0000EBADB4E0EB9F8001112498012155394F9F
:104E10003AAF29AFC8018951994F9CAF8BAFDC01E4
:104E20008D909D90AD90BC90F9012081318142819F
:104E30005381C501B4010E944A3569AB7AAB8BAB93
:104E40009CAB77FA709477F87094D501C401B05890
:104E50008B8F9C8FAD8FBE8FF701EB5FF84F2DA529
:104E60003EA54FA558A960817181828193810E94DE
:104E700049356B017C01F801EB5FF84F29A93AA98C
:104E80004BA95CA960817181828193810E9449351F
:104E90004B015C01A7019601C301B2010E94A13838
:104EA0006DAB7EAB8FAB98AFA50194016B8D7C8D04
:104EB0008D8D9E8D0E94A1389B01AC016DA97EA9AC
:104EC0008FA998AD0E944A356DAB7EAB8FAB98AF82
:104ED000A5019401C301B2010E94A1384B015C01FC
:104EE000A70196016B8D7C8D8D8D9E8D0E94A138C2
:104EF0009B01AC01C501B4010E9449352DA93EA911
:104F00004FA958AD0E94C9356B017C019BA192FF4E
:104F100068C12DEB37E346E055EBC701B6010E94AF
:104F2000613887FD0AC02BED3FE049EC50E4C70132
:104F3000B6010E9449356B017C0180907B06909000
:104F40007C06A0907D06B0907E062F8D38A149A1E9
:104F50005AA1CA01B9010E944A35A50194010E94D3
:104F60004935A50194010E94A1380E9440394B01A6
:104F70005C0120E030E040E05FE3C701B6010E9441
:104F8000A1382F8D38A149A15AA10E94A1389F773D
:104F9000A50194010E9449360E942E370E94C23614
:104FA0007EAB6DABDB01AB2B09F47ACE1D8990E0B3
:104FB00080E00E94F1364B015C0113FF0EC0AC0192
:104FC0009B016D857E858F8598890E94A1386D87AC
:104FD0007E878F87988B177F1D8BA5019401C70152
:104FE000B6010E9449366BA37CA38DA39EA3229693
:104FF000EFAD2297B4E0EB9FC00111248C01015565
:10500000194F8B5F984FD8012D913D914D915C9137
:10501000FC0160817181828193810E944935A501E3
:1050200094010E94493629966CAF7DAF8EAF9FAF39
:1050300029972BA13CA14DA15EA1CA01B9010E94F3
:10504000A1389B01AC0160E070E080E090E40E9438
:1050500049356B017C012BEA3AEA4AE25EE36BA137
:105060007CA18DA19EA10E94A1384B015C0120E092
:1050700030E040E850E4C701B6010E944A359B0188
:10508000AC01C501B4010E94A13821966CAF7DAF7F
:105090008EAF9FAF219720E030E040E05FE3C70193
:1050A000B6010E94A13825966CAF7DAF8EAF9FAF41
:1050B00025971F8E22242394312CEDA9FEA9E215F9
:1050C000F30509F4EDCDFF8DFC3008F09EC0A3017F
:1050D000920121966CAD7DAD8EAD9FAD21970E9462
:1050E000A1386B017C012B8D3C8D4D8D5E8D2596FD
:1050F0006CAD7DAD8EAD9FAD25970E94A1389B0113
:10510000AC01C701B6010E944A357B016C01A301C5
:10511000920125966CAD7DAD8EAD9FAD25970E9419
:10512000A1384B015C012B8D3C8D4D8D5E8D219600
:105130006CAD7DAD8EAD9FAD21970E94A1389B01D6
:10514000AC01C501B4010E9449352B013C012F8DF2
:105150002F5F2F8F470156018B8E9C8EAD8EBE8E9A
:10516000A30192016DA57EA58FA598A90E944A353D
:10517000EFA1F8A560837183828393832B8D3C8D8F
:105180004D8D5E8D69A97AA98BA99CA90E944A358B
:10519000A9ADBAAD6D937D938D939C93139729968A
:1051A0002CAD3DAD4EAD5FAD2997F80160817181A9
:1051B000828193810E944A35D8016D937D938D93AE
:1051C0009C931397BE01635F7F4F8FEA96E00E9426
:1051D000391C8091320681116ACDBFEF2B1A3B0A30
:1051E0006CCF2DEB37E346E055E3C701B6010E94D3
:1051F0003F3618160CF4A1CE2BED3FE049EC50E4FD
:10520000C701B6010E944A3596CEB10190E080E018
:105210000E94F1362BA13CA14DA15EA10E94A138B4
:105220006B017C010E9444366B8F7C8F8D8F9E8F2B
:10523000C701B6010E9432394B015C01A9A5BAA58C
:10524000CD90DD90ED90FC90F7FAF094F7F8F094A3
:10525000ABADBCAD8D919D910D90BC91A02D8F8F6C
:1052600098A3A9A3BAA3A70196016B8D7C8D8D8D00
:105270009E8D0E94A1382B013C012F8D38A149A1A0
:105280005AA1C501B4010E94A1389B01AC01C30120
:10529000B2010E944A352B013C01A7019601C501CC
:1052A000B4010E94A1386B017C012F8D38A149A166
:1052B0005AA16B8D7C8D8D8D9E8D0E94A1389B0196
:1052C000AC01C701B6010E9449356B8F7C8F8D8F71
:1052D0009E8F1F8E45CF8D8984608D8B8091310686
:1052E000823009F4E4CC0E94521B80913206811175
:1052F00019C0FBA1F071FF2E109236062BA123FBE3
:10530000882780F90E945B0386B18072909117060E
:10531000891719F184E00E943B020E943D1A80E047
:105320000E945B038091DF0680939E06882311F420
:105330000C94EA1D0E94521B80919E0690913106AA
:10534000833009F04DC0923029F088E00E944B0272
:105350000E943D1A10929E06ECC8B80185E097E0C5
:105360000E94391C81E08093300682E00E944B024B
:105370000E943D1A809132068111D4CF809131066E
:105380008111F6CF80913006813031F5FF2001F197
:105390008CE0E8E1F6E0A4E2B6E001900D928A9597
:1053A000E1F71092300680E00E945B030E943D1AF4
:1053B0000E9403150E946E090E9406060E94DC05E9
:1053C00080913606882309F472CC0E94AA08AACFDD
:1053D00085E00E943B02E5CF81E080933606E1CF75
:1053E00081E08093970610929B0610929A06109285
:1053F000980610929D061092A00610929F0684E6D1
:10540000809338068093390680933A069230A1F053
:105410006BEB76E080E00E94BB1B882311F40C94B8
:105420008D200E94841B40E050E0BA0180E00E9481
:10543000361580E00E9462098AEC92E00E947104B5
:1054400081E692E00E9471040E94D70583CF81E03B
:105450000C94EA1D82E00C94EA1D88E10C94EA1D8C
:1054600086E20C94EA1D89E10C94EA1D84E00C9418
:10547000EA1D8BE10C94EA1D85E20C94EA1D80E2A2
:105480000C94EA1D82E20C94EA1D84E20C94EA1D5D
:1054900080E10C94EA1D8FE00C94EA1DCF93DF931A
:1054A000C0E08C2F0E94631B811114C01092110761
:1054B0008EE30E9432030E944E038AE30E9432036D
:1054C00087E00E948304C13019F4DF91CF910895E1
:1054D000C1E0E7CF809111078823A9F30E94991CAE
:1054E000D82F8EE30E9432030E944E038AE30E946B
:1054F00032038D2F0E948F04E6CF2F923F924F925E
:105500005F926F927F928F929F92AF92BF92CF9253
:10551000DF92EF92FF920F931F93CF93DF93CDB75C
:10552000DEB7A2970FB6F894DEBF0FBECDBF909145
:10553000320691111BC1782E1E012DE0220E311C66
:1055400089E0D1011D928A95E9F786E08D8BE2E42E
:10555000F6E0FC8FEB8F5F019E012A5E3F4F490111
:1055600010E000E0C12CD12C7601872D90E09E8FB9
:105570008D8F802F94E0002321F090E1013009F419
:1055800098E0D4019D934D01ED8DFE8D02C0F595FF
:10559000E7958A95E2F7E0FF1BC020E030E040ECA1
:1055A0005FEBD50194966D917D918D919C9197972C
:1055B0000E94A138698F472E582E692EA7019601A7
:1055C0000E943F3687FD04C0C98CD42CE52CF62CF4
:1055D0000F5F1F4FB4E0AB0EB11C0330110549F64D
:1055E00080908D0690908E06A0908F06B0909006C9
:1055F00084E0682E01E04424439468E176E0CE0123
:1056000001960E948F0280918806E82FF0E0F8A3AF
:10561000EF8FFE01319628E136E03A8F298F3AA3C9
:1056200029A3512C10E030E020E0B701A60170580A
:105630008D8D9E8D022E02C0959587950A94E2F776
:1056400080FF28C05394A9A1BAA11D921D921D925A
:105650001C9213978F8D98A1022E02C09595879565
:105660000A94E2F780FF07C0002339F0408351839A
:105670006283738306C00023C9F3C082D182E282B1
:10568000F38286E190E08C0F9D1F820F931FDC0157
:105690008C91182B2F5F3F4F349689A19AA10496C5
:1056A0009AA389A32330310519F6652D70E090E0A7
:1056B00080E00E94F1360E94403910933706A50120
:1056C00094010E94A1386D877E878F87988BB101E6
:1056D000CE0101960E941B1294E0909335060E9421
:1056E0008A0A0E9419030023E9F00E947408FE014F
:1056F000769630E020E090E06191462F412359F00A
:10570000AC01022E02C0559547950A94E2F740FF7E
:1057100002C0609516232F5F3F4F2330310561F79C
:10572000109337060E948A0A80911306847309F445
:10573000B6C01091130614FF03C086E00E943B021E
:1057400015FF03C087E00E943B020111C3C00E9405
:105750007408872119F088E00E943B0280911406AA
:105760008823E9F00E94E9190E943D1AA2960FB61B
:10577000F894DEBF0FBECDBFDF91CF911F910F9187
:10578000FF90EF90DF90CF90BF90AF909F908F9061
:105790007F906F905F904F903F902F90089584E09E
:1057A0000E9441020E9403158091910690919206F9
:1057B0000E94CC14042509F477C020E030E040EAD0
:1057C00050E46091930670919406809195069091B3
:1057D00096060E94A1386B017C018090890690900A
:1057E0008A06A0908B06B0908C066A94611005CF53
:1057F00020908806312CC0909306D0909406E090BB
:105800009506F09096062601370177FA709477F89E
:10581000709410E000E08D8D9E8D002E02C0959555
:1058200087950A94E2F780FF26C0AB8DBC8D8D90E2
:105830009D90AD90BC901397C101002E02C095952C
:1058400087950A94E2F780FF40C094962D913D9190
:105850004D915C919797C701B6010E944A35A50109
:1058600094010E94A1380E946E38E98DFA8D608300
:105870007183828393830F5F1F4F298D3A8D2C5F35
:105880003F4F3A8F298F8B8D9C8D04969C8F8B8FE9
:105890000330110509F0BFCF1092350667CF812F75
:1058A0008C7109F020CF7ECFC0909306D0909406E3
:1058B000E0909506F090960680908D0690908E066A
:1058C000A0908F06B090900690CFA5019401C301DF
:1058D000B201C7CF12FF42CF89E03ECF1F920F9295
:1058E0000FB60F9211242F933F934F935F936F93B3
:1058F0007F938F939F93AF93BF93CF93EF93FF9338
:105900000E94CB02C82F882389F080FD0E94E919EC
:10591000C2FF05C080911306826080931306C1FF09
:1059200005C080911306886080931306FF91EF9164
:10593000CF91BF91AF919F918F917F916F915F9127
:105940004F913F912F910F900FBE0F901F90189580
:105950001F920F920FB60F9211248F939F939BB1BA
:1059600080910F028C71937E892B8BB915BC9F910E
:105970008F910F900FBE0F901F9018951F920F924E
:105980000FB60F9211240F931F932F933F934F93B2
:105990005F936F937F938F939F93AF93BF93EF9397
:1059A000FF93809111028111EAC19BB18091210284
:1059B000807E9F71892B8BB98BB1837E9091200261
:1059C000892B8BB980911F0286BD82E085BD81E065
:1059D0008093110278948091330290913402892B44
:1059E00009F0A1C08091580590918405981709F499
:1059F000C1C1E09158052E2F30E087E0E89FF0010B
:105A00001124E65AFA4FF0933402E0933302828174
:105A100093819093890080938800808191819093F5
:105A20002F0280932E02E481809130028E1761F163
:105A3000E093300282E1E89FF0011124E957FA4F28
:105A4000F0933202E093310284859585A685B7856F
:105A5000B695A7959795879580931A0290931B0208
:105A6000A0931C02B0931D0280931602909317021C
:105A7000A0931802B093190280931202909313021C
:105A8000A0931402B0931502E0913102F09132021A
:105A900080899091100289278093210287E0829F5C
:105AA000D001839FB00D1124A65ABA4F15962C91A0
:105AB00080819181A281B381022E04C0B695A79501
:105AC000979587950A94D2F78093220290932302A8
:105AD000A0932402B093250284819581A681B78189
